:1000000033C000004CC000004AC0000048C00000DF
:1000100046C00000F2C0000042C0000040C0000026
:100020003EC000003CC000003AC0000080C000009C
:1000300090C0000034C0000032C0000030C000009A
:100040002EC000002CC000002AC0000028C0000004
:1000500026C0000024C0000022C0000020C0000014
:100060001EC000001CC0000011241FBECFEFD8E04E
:10007000DEBFCDBF13E0A0E0B1E0EAE6F7E002C0EA
:1000800005900D92AA3BB107D9F723E0AAEBB3E0A4
:1000900001C01D92A23CB207E1F704D364C3B0CF04
:1000A00084B1866384B98AB1837F8AB95A9A0895E4
:1000B0001092C5008DE48093C400E1ECF0E08081F3
:1000C00088618083E2ECF0E080818660808308951F
:1000D0009091C00095FFFCCF8093C6000895809159
:1000E000C00087FFFCCF8091C6000895E1E8F0E0F2
:1000F00080818C60808381E08093890085ED80938E
:10010000880010928B008AEE80938A00EFE6F0E080
:100110008081866080830895E8E6F0E080818460D5
:100120008083EDE6F0E080818860808308951F92EF
:100130000F920FB60F9211248F939F9385B192E087
:10014000892785B99F918F910F900FBE0F901F90B7
:1001500018951F920F920FB60F9211248F939F93B1
:10016000EF93FF938091C0039091C10308975CF0D7
:100170008091C0039091C1038035910514F5809161
:10018000200181111EC0E091C003F091C103EF5D19
:10019000FD4F8081882311F02A9A0AC0E091C003A4
:1001A000F091C103EF5DFD4F8081811101C02A985C
:1001B0008091C0039091C10301969093C1038093F5
:1001C000C0038091C0039091C1038035910561F413
:1001D00081E08093BB038091C0039091C10301969D
:1001E0009093C1038093C003FF91EF919F918F91F2
:1001F0000F900FBE0F901F9018951F920F920FB681
:100200000F9211248F939F93EF93FF938091BE03DE
:100210009091BF03089724F54A9B09C0E091BE0363
:10022000F091BF03EF5DFE4F81E0808307C0E09156
:10023000BE03F091BF03EF5DFE4F10828091BE03BD
:100240009091BF0301969093BF038093BE0380916A
:10025000BE039091BF03089719F481E08093BD031A
:100260008091BE039091BF0380359105FCF480918D
:10027000200181111BC04A9B09C0E091BE03F0918F
:10028000BF03EF5DFE4F81E0808307C0E091BE03B6
:10029000F091BF03EF5DFE4F10828091BE039091FD
:1002A000BF0301969093BF038093BE038091BE036A
:1002B0009091BF038035910561F481E08093BA038A
:1002C0008091BE039091BF0301969093BF038093EA
:1002D000BE03FF91EF919F918F910F900FBE0F90F2
:1002E0001F901895A4E1B0E0E7E7F1E011C28FE0BC
:1002F000E1E2F3E0DE01119601900D928A95E1F7BB
:10030000FE01709685E0DF011D928A95E9F78DE088
:10031000DFDE8AE0DDDE8E010F5F1F4F7E01B5E17B
:10032000EB0EF11CF80181918F01D2DE0E151F0535
:10033000C9F700E310E0F801EF5DFD4F80818823ED
:1003400011F081E301C080E3C3DE0F5F1F4F003572
:10035000110589F71092BB036496E6E0F5C1ACE1A4
:10036000B0E0E4EBF1E0D4C188E0E5E3F3E0DE01E6
:10037000559601900D928A95E1F781E1EDE3F3E066
:10038000DE01119601900D928A95E1F71A8A1B8A77
:100390001C8A8DE09DDE8AE09BDE8AE099DE8E017C
:1003A0000F5F1F4F7E0185E1E80EF11CF80181917E
:1003B0008F018EDE0E151F05C9F7F80100E010E071
:1003C00080E090E0DC01AF5DBE4F2C9130812327AF
:1003D0002193020F111D01968830910599F701159F
:1003E000110521F48FE474DE8BE403C08EE470DE2B
:1003F00087E46EDE81E08093BC03C8016C96E6E082
:10040000A3C1A1E6B0E0E6E0F2E082C121E2E1E5CD
:10041000F3E0DE01AF5BBF4F01900D922A95E1F74B
:100420009E012F5F3F4F790120E4D7011D922A954D
:10043000E9F721E02983D70120E030E020323105BF
:10044000CCF5AC01420F531FFA0140814C932F5F52
:100450003F4F11962034310589F7BE016F5D7F4F04
:10046000F701808181110AC03196E617F707C9F7B5
:1004700080E091E0A701405C5F4F14C0AE014F5B8C
:100480005F4F80E090E09F01280F391FDA010D9146
:10049000AD01D9011C9110271C9301968132910561
:1004A00091F7E2CF2191DC012D93CD01E417F507FF
:1004B000C9F702C01C92CBCF80E091E0CF59DF4F4B
:1004C000E6E042C1A0E2B0E0E7E6F2E025C1FE01CD
:1004D000319620E330E0CF01D901AF5DBE4F4C91A2
:1004E00041932F5F3F4F20353105B1F78ADFFC0183
:1004F00028E030E080E090E0D901AF5DBE4F4C9144
:10050000508145274193840F911D2F5F3F4F283223
:10051000310591F7A096E2E01BC1A8E2B0E0E2E964
:10052000F2E0F2C0CFDF6C018DE0D2DD8AE0D0DDF9
:100530008CE0E2E7F3E0DE01559601900D928A959A
:10054000E1F7FE01B19688E0DF011D928A95E9F797
:100550008E010B5E1F4F5E01B9E2AB0EB11C78013C
:10056000F80181918F01B4DD0A151B05C9F7C1148B
:10057000D10421F48FE4ACDD8BE403C08EE4A8DD6C
:1005800087E4A6DD8DE0A4DD8AE0A2DD83E1E6E874
:10059000F3E0DE01119601900D928A95E1F71C8A35
:1005A0008E010F5F1F4FD8018D918D0191DD0E15CA
:1005B0001F05C9F700E310E0F801EF5DFE4F8081F1
:1005C000882311F081E301C080E382DD0F5F1F4FBC
:1005D0000035110589F71092BA03A896EAE0B0C079
:1005E000A0E3B0E0E5EFF2E095C088E0E5E3F3E0FA
:1005F000DE01999601900D928A95E1F78E010F5DCB
:100600001F4F88E0F80111928A95E9F781E08EA3E7
:1006100080E2EAE9F3E0DE01119601900D928A95FD
:10062000E1F7CE010196EDDEFE01BF9748ED5FEFE9
:1006300020E030E0283031055CF4A9E2B0E0AC0FF6
:10064000BD1FA20FB31F6C91D901AF5DBD4F6C935D
:10065000B901685071096032710548F4DC01A40FDA
:10066000B51F90966C91D901AF5DBD4F6C9348302A
:10067000510528F4D801A40FB51F6C9104C0203394
:1006800031052CF06081D901AF5DBD4F6C932F5FB8
:100690003F4F31964F5F5F4F2035310559F6E09659
:1006A000E4E054C0FDDC04DD21DD36DD99DF789423
:1006B0008091BD03882359F08091BC03811107C04C
:1006C0004EDE21E0892B09F420E020932001809167
:1006D000BB03882331F080916F008B7F80936F0084
:1006E00001DE8091BA03882319F380916F008D7F1A
:1006F00080936F0012DFDCCF2F923F924F925F9278
:100700006F927F928F929F92AF92BF92CF92DF9221
:10071000EF92FF920F931F93CF93DF93CDB7DEB786
:10072000CA1BDB0B0FB6F894DEBF0FBECDBF09941A
:100730002A88398848885F846E847D848C849B8471
:10074000AA84B984C884DF80EE80FD800C811B817F
:10075000AA81B981CE0FD11D0FB6F894DEBF0FBEAE
:0A076000CDBFED010895F894FFCF1E
:10076A00010000000000000000000000000000007E
:10077A00000000000000000000000000000000006F
:10078A00010100000000000000000000000000005D
:10079A00000000000000000000000000000000004F
:1007AA00000000000000000000000000000000003F
:1007BA00000000000000000000000000000000002F
:1007CA00000000000000000000000000000000001F
:1007DA00000000000000000000000000000000000F
:1007EA0000000000000000000000000000000000FF
:1007FA0000000000000000000000000000000000EF
:10080A0000000000000000000000000000000000DE
:10081A0000000000000000000000000000000000CE
:10082A0000000000000000000000000000000000BE
:10083A0000000000000000000000000000000000AE
:10084A00000000000000000000000000000000009E
:10085A00000000000000000000000000000000008E
:10086A00000000000000000000000000000000007E
:10087A00000000000000000000000000000000006E
:10088A00000100000000000000000000000000005D
:10089A00000000000000000000000000000000004E
:1008AA00000000000000000000000000000000003E
:1008BA00000000000000000000000000000000002E
:1008CA00000000000000000000000000000000001E
:1008DA00000000000000000000000000000000000E
:1008EA0000000000000000000000000000000000FE
:1008FA0000000000000000000000000000000000EE
:10090A0000000000000000000000000000000000DD
:10091A0000000000000000000000000000000000CD
:10092A0000000000000000000000000000000000BD
:10093A0000000000000000000000000000000000AD
:10094A00000000000000000000000000000000009D
:10095A00000000000000000000000000000000008D
:10096A00000000000000000000000000000000007D
:10097A00000000000000000000000000000000006D
:10098A000053656E64206D6173736167653A200078
:10099A000000000000000101010101010050726520
:1009AA00656D626C6520436865636B3A20000000E0
:1009BA000001000000000001000001010000000029
:1009CA000001000000010101000101000101000114
:1009DA00010143524320436865636B3A20000000DB
:1009EA000000000000005265636569766564206D49
:1009FA006173736167653A2000000101000001001C
:100A0A0000010000010100000100000101010000D5
:0A0A1A0000010101010100010000CC
:00000001FF
