:1000000033C000004CC000004AC0000048C00000DF
:1000100046C0000091C1000042C0000040C0000086
:100020003EC000003CC000003AC0000099C0000083
:10003000D0C0000034C0000032C0000030C000005A
:100040002EC000002CC000002AC0000028C0000004
:1000500026C0000024C0000022C0000020C0000014
:100060001EC000001CC0000011241FBECFEFD8E04E
:10007000DEBFCDBF11E0A0E0B1E0E6ECF7E002C0EA
:1000800005900D92A234B107D9F721E0A2E4B1E0C6
:1000900001C01D92A136B207E1F71AD392C3B0CFC7
:1000A000FB0177FD379623E0F595E7952A95E1F773
:1000B000E80FF91FCB0168E070E025D320E830E0BD
:1000C00002C0359527958A95E2F78081822B80833F
:1000D000089584B1866384B98AB1837F8AB95A9AB4
:1000E00008951092C5008DE48093C400E1ECF0E027
:1000F000808188618083E2ECF0E08081866080838B
:1001000008959091C00095FFFCCF8093C60008959C
:100110008091C00087FFFCCF8091C6000895E1E880
:10012000F0E080818C60808381E08093890085EDA0
:100130008093880010928B008AEE80938A00EFE60D
:10014000F0E08081866080830895E8E6F0E08081B9
:1001500084608083EDE6F0E080818860808308958C
:100160001F920F920FB60F9211248F939F9385B118
:1001700092E0892785B99F918F910F900FBE0F90C4
:100180001F90189581E090E0209145012E3711F4E1
:1001900080E090E00895FB0177FD379633E0F59518
:1001A000E7953A95E1F7E80FF91F208130E0CB01A0
:1001B00068E070E0A8D240E850E002C0559547954D
:1001C0008A95E2F72423352381E0232B09F480E08C
:1001D00008951F920F920FB60F9211242F933F9301
:1001E0004F935F936F937F938F939F93AF93BF933F
:1001F000EF93FF9380915B0190915C0108973CF035
:1002000080915B0190915C0180359105ACF4609127
:100210005B0170915C018FE491E0BDDF882311F0F8
:100220002A9A01C02A9880915B0190915C01019605
:1002300090935C0180935B0180915B0190915C01E4
:100240008035910561F481E08093430180915B01E9
:1002500090915C01019690935C0180935B01FF910A
:10026000EF91BF91AF919F918F917F916F915F912E
:100270004F913F912F910F900FBE0F901F901895A7
:10028000A4E1B0E0E5E4F1E05DC28FE0E0E0F1E0A0
:10029000DE01119601900D928A95E1F7FE017096AC
:1002A00085E0DF011D928A95E9F78DE02ADF8AE07B
:1002B00028DF8AE026DF8E010F5F1F4F7E01B5E148
:1002C000EB0EF11CF80181918F011BDF0E151F054C
:1002D000C9F700E310E0B8018FE491E05CDF882308
:1002E00011F081E301C080E30CDF0F5F1F4F003589
:1002F000110589F7109243016496E6E03FC2413050
:1003000009F4CECEFB0177FD379643E0F595E795EE
:100310004A95E1F7E80FF91FCB0168E070E0F3D1EF
:1003200020E830E002C0359527958A95E2F72095C0
:1003300080818223808308951F920F920FB60F92BF
:1003400011242F933F934F935F936F937F938F93DA
:100350009F93AF93BF93EF93FF9380915901909137
:100360005A0108971CF18091590190915A01089700
:1003700091F48091440181110EC080914501880F54
:100380004A99816080934501FDDE892B51F581E01A
:100390008093440126C08091590190915A01803583
:1003A0009105FCF4809144018823D9F04A9B08C050
:1003B0006091590170915A0185E491E071DE08C0A5
:1003C0006091590170915A0140E085E491E097DF16
:1003D0008091590190915A01019690935A0180930E
:1003E00059018091590190915A018035910561F42C
:1003F00081E0809342018091590190915A010196C8
:1004000090935A0180935901FF91EF91BF91AF9161
:100410009F918F917F916F915F914F913F912F911C
:100420000F900FBE0F901F901895ADE0B0E0EAE17D
:10043000F2E083C125E0E4E1F1E0DE0119960190EC
:100440000D922A95E1F78E010F5F1F4F28E0F8010A
:1004500011922A95E9F7F80120E030E024303105C7
:100460000CF048C0DC01A20FB31F4C9140832F5FFA
:100470003F4F31962830310589F7E12CF12CB70137
:10048000C80189DE81110AC0FFEFEF1AFF0A80E27E
:10049000E816F104A1F7E12CF12C1AC0C12CD12CE3
:1004A0005601AE0CBF1CB501C80175DE982EB60111
:1004B000CE01099670DE482F4925B501C8011FDF1E
:1004C000EFEFCE1ADE0AF1E2CF16D10449F7DCCF06
:1004D000B701605E7F4FC8015EDE482FB7018DE532
:1004E00091E00DDF8FEFE81AF80AE0E2EE16F10472
:1004F00079F702C01082BBCF8DE591E02D96EBE03D
:1005000038C1A4E0B0E0E6E8F2E01CC184E78983EA
:1005100095E69A8393E79B838C83CE01019685DFD2
:100520007E0125E0E21AF108EFE4F1E04FEF5FEF22
:1005300020E030E014E00EE72115310531F400939E
:100540004F014430510588F403C04430510538F45C
:10055000BC01640F751FDB016C91608306C0253000
:10056000310519F41093540106C0263031051CF0F2
:10057000D7016C9160832F5F3F4FBFEFEB1AFB0AEF
:1005800031964F5F5F4F2A303105B1F62496E6E091
:10059000F5C0A4E0B0E0EEECF2E0D1C000E010E085
:1005A000B801605D7F4F85E491E0F5DD482FB8012B
:1005B000CE010196A4DE0F5F1F4F0032110581F7B7
:1005C000CE01019632DF7C01C12CD12C00E010E07D
:1005D000B801C701E0DDB82EB801685F7F4F85E440
:1005E00091E0D9DD482F4B25B801C70188DEB8015D
:1005F000C701D1DDC80ED11C0F5F1F4F003211059E
:1006000039F7C6012496E9E0B6C0A8E2B0E0EAE016
:10061000F3E094C0BEDF6C018DE073DD8AE071DD34
:100620008CE0E9E1F1E0DE01559601900D928A95AA
:10063000E1F7FE01B19688E0DF011D928A95E9F7A6
:100640008E010B5E1F4F5E01B9E2AB0EB11C78014B
:10065000F80181918F0155DD0A151B05C9F7C114F9
:10066000D10421F48FE44DDD8BE403C08EE449DD39
:1006700087E447DD8DE045DD8AE043DD83E1EDE29F
:10068000F1E0DE01119601900D928A95E1F71C8A46
:100690008E010F5F1F4FD8018D918D0132DD0E1538
:1006A0001F05C9F700E310E0B80185E491E073DDB0
:1006B000882311F081E301C080E323DD0F5F1F4F2A
:1006C0000035110589F710924201A896EAE052C060
:1006D00000DD07DD24DD39DD14DF789480914301EE
:1006E000882331F080916F008B7F80936F00C8DD8D
:1006F00080914201882391F380916F008D7F8093D8
:100700006F0083DFEBCF97FB072E16F4009406D023
:1007100077FD08D042D007FC05D03EF49095819536
:100720009F4F0895709561957F4F08952F923F9246
:100730004F925F926F927F928F929F92AF92BF92F1
:10074000CF92DF92EF92FF920F931F93CF93DF939D
:10075000CDB7DEB7CA1BDB0B0FB6F894DEBF0FBEFA
:10076000CDBF09942A88398848885F846E847D8447
:100770008C849B84AA84B984C884DF80EE80FD8049
:100780000C811B81AA81B981CE0FD11D0FB6F894BF
:10079000DEBF0FBECDBFED010895AA1BBB1B51E10B
:1007A00007C0AA1FBB1FA617B70710F0A61BB70BE1
:1007B000881F991F5A95A9F780959095BC01CD0186
:0607C0000895F894FFCF3C
:1007C60053656E64206D6173736167653A2000003E
:1007D6000000000082608EDB804352432043686540
:1007E600636B3A20000000000000000000526563C1
:1007F6006569766564206D6173736167653A20008B
:020806000000F0
:00000001FF
