:1000000033C000004CC000004AC0000048C00000DF
:1000100046C00000BCC0000042C0000040C000005C
:100020003EC000003CC000003AC0000039C00000E3
:1000300049C0000034C0000032C0000030C00000E1
:100040002EC000002CC000002AC0000028C0000004
:1000500026C0000024C0000022C0000020C0000014
:100060001EC000001CC0000011241FBECFEFD8E04E
:10007000DEBFCDBF11E0A0E0B1E0ECE5F2E002C0F0
:1000800005900D92A031B107D9F721E0A0E1B1E0D0
:1000900001C01D92A631B207E1F7D9D0DDC0B0CFC3
:1000A0001F920F920FB60F9211248F939F9385B1D9
:1000B00092E0892785B99F918F910F900FBE0F9085
:1000C0001F9018951F920F920FB60F9211248F93C5
:1000D0009F93EF93FF93E0911401F0911501EE0FC0
:1000E000FF1FE050FF4F8081918190931101809319
:1000F00010018091140190911501019690931501C2
:10010000809314018091140190911501089721F4B6
:10011000109215011092140185B190E2892785B9DA
:100120008091100190911101019711F42A9A07C052
:100130008091100190911101892B09F42A98FF9167
:10014000EF919F918F910F900FBE0F901F90189578
:1001500084B1866384B98AB1837F8AB95A9A089533
:100160001092C5008DE48093C400E1ECF0E0808142
:1001700088618083E2ECF0E080818660808308956E
:100180009091C00095FFFCCF8093C60008951F9208
:100190000F920FB60F9211242F933F934F935F93BB
:1001A0006F937F938F939F93AF93BF93EF93FF933F
:1001B0004A9B08C081E090E0909313018093120164
:1001C00081E305C0109213011092120180E3D8DF81
:1001D00085B190E1892785B9FF91EF91BF91AF91EA
:1001E0009F918F917F916F915F914F913F912F914F
:1001F0000F900FBE0F901F9018958091C00087FF41
:10020000FCCF8091C6000895E1E8F0E080818C6029
:10021000808387EB809389008BE1809388008BE556
:1002200080938B008EE880938A00EFE6F0E0808177
:100230008660808378940895E8E6F0E080818460A9
:100240008083EDE6F0E0808188608083089580DF20
:0C02500087DFDADFF1DFFFCFF894FFCF8B
:10025C00010001000000000001000000010000008E
:00000001FF
