:1000000033C0000041C000003FC000003DC0000000
:100010003BC0000039C0000037C0000035C0000000
:1000200033C0000031C000002FC0000054C00000E9
:100030002BC0000029C0000027C0000025C0000020
:1000400024C0000021C000001FC000001DC000002F
:100050001BC0000019C0000017C0000015C0000040
:1000600013C0000011C0000011241FBECFEFD8E064
:10007000DEBFCDBF21E0A0E0B1E001C01D92A43001
:10008000B207E1F7A2D0B5C0BBCF1F920F920FB657
:100090000F9211242F938F939F9381ED86BD8091B2
:1000A0000201909103010196909303018093020154
:1000B000893E934044F085B190E1892785B910923B
:1000C0000301109202019F918F912F910F900FBE0B
:1000D0000F901F9018951F920F920FB60F92112438
:1000E0002F938F939F931092850081ED80938400CE
:1000F00081E08093890010928800809100019091A6
:10010000010101969093010180930001893E934083
:1001100044F085B190E2892785B9109201011092CF
:1001200000019F918F912F910F900FBE0F901F9004
:1001300018959093C5008093C400E1ECF0E08081B5
:1001400088618083E2ECF0E080818660808308959E
:100150009091C00095FFFCCF8093C60008958091D8
:10016000C00087FFFCCF8091C600089585B58460EC
:1001700085BD91ED96BDEEE6F0E0808181608083E3
:10018000E0E8F0E0808188608083E1E8F0E0808151
:1001900084608083109285009093840081E0809336
:1001A000890010928800EFE6F0E080818260808311
:1001B00078940895E8E6F0E0808184608083EDE63D
:1001C000F0E080818660808308958FEF84B91AB84B
:1001D0008DE490E0AEDFCADFEDDF8DE4B9DF2FE71D
:1001E00089EA93E0215080409040E1F700C0000090
:0601F000F4CFF894FFCFEC
:00000001FF
