:1000000033C000004CC000004AC0000048C00000DF
:1000100046C0000045C4000042C0000040C00000CF
:100020003EC000003CC000003AC0000043C30000D6
:1000300053C3000034C0000032C0000030C00000D4
:100040002EC000002CC000002AC0000028C0000004
:1000500026C0000024C0000022C0000020C0000014
:100060001EC000001CC0000011241FBECFEFD8E04E
:10007000DEBFCDBF11E0A0E0B1E0EAE5FEE002C0E6
:1000800005900D92AC3AB107D9F721E0ACEAB1E0A6
:1000900001C01D92A33CB207E1F73DD5DCC6B0CF4D
:1000A000FB0177FD379623E0F595E7952A95E1F773
:1000B000E80FF91FCB0168E070E048D520E830E098
:1000C00002C0359527958A95E2F78081822B80833F
:1000D000089584B1866384B98AB1837F8AB95A9AB4
:1000E00008951092C5008DE48093C400E1ECF0E027
:1000F000808188618083E2ECF0E08081866080838B
:1001000008959091C00095FFFCCF8093C60008959C
:100110008091C00087FFFCCF8091C6000895E1E880
:10012000F0E080818C60808381E08093890085EDA0
:100130008093880010928B008AEE80938A00EFE60D
:10014000F0E08081866080830895E8E6F0E08081B9
:1001500084608083EDE6F0E080818860808308958C
:1001600080E091E051D59093BC018093BB0180E089
:1001700091E04AD59093BE018093BD010895FC01A2
:1001800081E090E0309100012081321302C080E0D4
:1001900090E00895FB0177FD379633E0F595E795FC
:1001A0003A95E1F7E80FF91F208130E0CB0168E0D4
:1001B00070E0CCD440E850E002C0559547958A9550
:1001C000E2F72423352381E0232B09F480E008950E
:1001D000A4E1B0E0EDEEF0E0D8C48FE0E7E0F1E0BC
:1001E000DE01119601900D928A95E1F7FE0170965D
:1001F00085E0DF011D928A95E9F78DE082DF8AE0D4
:1002000080DF8AE07EDF8E010F5F1F4F7E01B5E148
:10021000EB0EF11CF80181918F0173DF0E151F05A4
:10022000C9F700E110E08091BB019091BC01DC01B5
:1002300014962C91B8E02B9F9001112402171307FC
:1002400064F4B8010596A6DF882311F081E301C0AC
:1002500080E357DF0F5F1F4FE6CF1092B501649622
:10026000E6E0AFC4413009F41BCFFB0177FD3796C0
:1002700043E0F595E7954A95E1F7E80FF91FCB01C3
:1002800068E070E063D420E830E002C0359527953F
:100290008A95E2F720958081822380830895A5E0E6
:1002A000B0E0E4E5F1E06AC47B0195E0EBE1F1E068
:1002B000DE01119601900D929A95E1F7082F10E05A
:1002C000C8010496A1D4B82EA92EE82FF92F20E05A
:1002D00030E0C8010396821793076CF020173107AE
:1002E0000CF04BC0D701A20FB31F4C9140832F5F7E
:1002F0003F4F3196F0CF680153E0CC0CDD1C5A958E
:10030000E1F700E010E00C151D0524F5B8018B2D78
:100310009A2D40DF8823D9F0E12CF12C4701800E83
:10032000911EB4018B2D9A2D35DF782EB701CE01A9
:10033000019630DF482F4725B4018B2D9A2D92DF8F
:100340008FEFE81AF80A81E2E816F10439F70F5F37
:100350001F4FD9CF00E010E0B8016C0D7D1D8B2D33
:100360009A2D18DF482FB80187EB91E07BDF0F5FF4
:100370001F4F0032110581F702C01082B8CF87EB02
:1003800091E02596EDE016C4A0E0B0E0E9ECF1E0E4
:10039000FBC3E091BD01F091BE01BF016B5F7F4FD8
:1003A00084817DDF8C01E12CF12CC0E0D0E0BE0126
:1003B000C801F0DED82EBE018091BD019091BE0132
:1003C000E9DE482F4D25BE01C8014CDFBE01C80142
:1003D000E1DEE80EF11C2196C032D10541F7C701DC
:1003E000CDB7DEB7E7E0ECC3A8E2B0E0E9EFF1E0BB
:1003F000C8C3CADF6C018DE084DE8AE082DE8CE057
:10040000E0E2F1E0DE01559601900D928A95E1F768
:10041000FE01B19688E0DF011D928A95E9F78E0111
:100420000B5E1F4F5E01B9E2AB0EB11C7801F80103
:1004300081918F0166DE0A151B05C9F7C114D1042D
:1004400021F48FE45EDE8BE403C08EE45ADE87E4A1
:1004500058DE8DE056DE8AE054DE83E1E4E3F1E02D
:10046000DE01119601900D928A95E1F71C8A8E01AA
:100470000F5F1F4FD8018D918D0143DE0E151F05B3
:10048000C9F700E110E08091BD019091BE01FC012F
:100490002481F8E02F9F900111240217130764F4C0
:1004A000B801059677DE882311F081E301C080E36F
:1004B00028DE0F5F1F4FE7CF1092B401A896EAE045
:1004C0007CC3CF93FC01C48180E090E02C2F30E00E
:1004D000BF01620F731FAC01420F531F452B51F038
:1004E000DB01A80FB91F14964C91149716964C93E4
:1004F0000197F1CF8FE0858389E08683CE5FC48347
:10050000CF910895E091BB01F091BC0184E0848318
:1005100084E7858395E6968393E797838087CF0169
:10052000D0DFE091BB01F091BC01BF016B5F7F4F59
:100530008481B5DEE091BB01F091BC0120E030E0A8
:10054000DC014D91CD0141932F5F3F4F24303105A8
:10055000B9F7089591E0893009F490E0892F089562
:10056000A4E1B0E0E5EBF2E00CC37C016B018DE0AF
:10057000C8DD8AE0C6DD83E1E8E4F1E0DE01119642
:1005800001900D928A95E1F71C8A8E010F5F1F4F33
:100590005E0185E1A80EB11CF80181918F01B1DDEA
:1005A0000A151B05C9F780E0F601D70101900D92ED
:1005B0008A95E1F76496EAE000C3AEE1B0E0E2EECE
:1005C000F2E0DFC26C018B01DB0115968C91811189
:1005D00021C08DE096DD8AE094DD8AE092DD84E141
:1005E000E8E9F1E0DE01119601900D928A95E1F7BC
:1005F000FE0131967F015E01F5E1AF0EB11CD7011E
:100600008D917D017EDDEA14FB04C9F7B801C601B6
:10061000A7DF25C0FE017F965F01893019F58DE0C7
:1006200070DD8AE06EDD8AE06CDD88E1ECE5F1E00A
:10063000DE01119601900D928A95E1F7FE017996FF
:1006400086E0DF011D928A95E9F78E010F5F1F4F4B
:10065000F80181918F0155DD0A151B05C9F785E069
:1006600090E021C08DE04DDD8AE04BDD8AE049DD80
:100670008CE1EAE7F1E0DE01119601900D928A9596
:10068000E1F71E8E1D8E9E012F5F3F4F7901D7012E
:100690008D917D0136DDEA14FB04C9F7B801C6016E
:1006A0005FDF84E690E09093B1018093B0016E9695
:1006B000EAE083C21F920F920FB60F9211248F931C
:1006C0009F9385B192E0892785B99F918F910F9073
:1006D0000FBE0F901F9018951F920F920FB60F929A
:1006E00011242F933F934F935F936F937F938F9337
:1006F0009F93AF93BF93EF93FF938091B20190913B
:10070000B301892B19F56091AE017091AF0180E0C2
:1007100091E040DD882311F02A9A01C02A98809147
:10072000AE019091AF0101969093AF018093AE011D
:100730008091AE019091AF01089709F0A0C010928E
:10074000AF011092AE0181E090E02AC08091B20129
:100750009091B301019749F56091AE017091AF019D
:100760008091BB019091BC0115DD882311F02A9A7C
:1007700001C02A988091AE019091AF0101969093AB
:10078000AF018093AE018091AE019091AF0180974F
:1007900009F075C01092AF011092AE0182E090E0B6
:1007A0009093B3018093B2016AC08091B20190919D
:1007B000B301029731F56091AE017091AF01809164
:1007C000BB019091BC010496E5DC882311F02A9AC4
:1007D00001C02A988091AE019091AF01019690934B
:1007E000AF018093AE018091AE019091AF01089767
:1007F00009F045C01092AF011092AE0183E090E085
:10080000CFCF8091B2019091B301039779F56091B8
:10081000AE017091AF018091BB019091BC01059632
:10082000B9DC882311F02A9A01C02A988091AE0180
:100830009091AF0101969093AF018093AE0120910A
:10084000AE013091AF01E091BB01F091BC01848118
:1008500048E0849FC00111242817390781F41092C1
:10086000AF011092AE0184E090E09ACF8091B20186
:100870009091B301049719F481E08093B501FF9141
:10088000EF91BF91AF919F918F917F916F915F9108
:100890004F913F912F910F900FBE0F901F90189581
:1008A0001F920F920FB60F9211242F933F934F93E5
:1008B0005F936F937F938F939F93AF93BF93EF93C8
:1008C000FF938091B0019091B101892B09F05BC039
:1008D0008091AC019091AD010897DCF44A9B08C06F
:1008E0006091AC017091AD0186EB91E0D9DB08C05D
:1008F0006091AC017091AD0140E086EB91E0B2DC1B
:100900008091AC019091AD0101969093AD018093DF
:10091000AC018091AC019091AD010897C9F486EBD0
:1009200091E02DDC892B51F41092AD011092AC01B5
:1009300081E090E09093B1018093B0018091AC018F
:100940009091AD0101969093AD018093AC01D2C01E
:100950008091AC019091AD0109970CF4CBC08091CE
:10096000B601880F4A9981608093B60186EB91E0C9
:1009700006DC892B09F0BEC01092AD011092AC01CB
:1009800081E090E02EC08091B0019091B10101977B
:1009900069F58091BD019091BE014A9B06C06091AE
:1009A000AC017091AD017CDB06C06091AC0170912F
:1009B000AD0140E057DC8091AC019091AD01019612
:1009C0009093AD018093AC018091AC019091AD0109
:1009D000809709F08FC01092AD011092AC0182E0B7
:1009E00090E09093B1018093B00184C08091B001F8
:1009F0009091B101029759F58091BD019091BE018E
:100A00004A9B07C06091AC017091AD01049648DB30
:100A100007C06091AC017091AD0140E0049622DC0A
:100A20008091AC019091AD0101969093AD018093BE
:100A3000AC018091AC019091AD01089709F05AC0CA
:100A40001092AD011092AC0183E090E0CACF80918A
:100A5000B0019091B1010397A1F58091BD019091F2
:100A6000BE014A9B07C06091AC017091AD01059633
:100A700017DB07C06091AC017091AD0140E00596B5
:100A8000F1DB8091AC019091AD0101969093AD01A5
:100A90008093AC012091AC013091AD01E091BD019A
:100AA000F091BE01848148E0849FC0011124281781
:100AB000390701F51092AD011092AC0186E090E08B
:100AC00090CF8091B0019091B101069751F460915F
:100AD000BD017091BE018091BB019091BC016DDDA3
:100AE00009C08091B0019091B101059719F481E09E
:100AF0008093B401FF91EF91BF91AF919F918F913E
:100B00007F916F915F914F913F912F910F900FBE09
:100B10000F901F901895DDDAE4DA01DB16DB20DB9D
:100B2000F1DC78948091B501882329F080916F00E1
:100B30008B7F80936F008091B401882399F380911B
:100B40006F008D7F80936F004FDCECCF97FB072EFB
:100B500016F4009406D077FD08D042D007FC05D0EB
:100B60003EF4909581959F4F0895709561957F4FC4
:100B700008952F923F924F925F926F927F928F9241
:100B80009F92AF92BF92CF92DF92EF92FF920F931C
:100B90001F93CF93DF93CDB7DEB7CA1BDB0B0FB626
:100BA000F894DEBF0FBECDBF09942A8839884888E3
:100BB0005F846E847D848C849B84AA84B984C88479
:100BC000DF80EE80FD800C811B81AA81B981CE0F70
:100BD000D11D0FB6F894DEBF0FBECDBFED01089555
:100BE000AA1BBB1B51E107C0AA1FBB1FA617B70753
:100BF00010F0A61BB70B881F991F5A95A9F780956F
:100C00009095BC01CD010895CF93DF93823091057B
:100C100010F482E090E0E091C101F091C20120E087
:100C200030E0A0E0B0E0309739F1408151814817C1
:100C30005907B8F04817590771F4828193811097CA
:100C400029F013969C938E9312972CC09093C20117
:100C50008093C10127C02115310531F04217530798
:100C600018F0A901DB0101C0EF019A01BD01DF010C
:100C70000280F381E02DD7CF21153105F9F0281B33
:100C8000390B2430310580F48A819B81611571050F
:100C900021F0FB019383828304C09093C20180936F
:100CA000C101FE01329644C0FE01E20FF31F8193A1
:100CB000919322503109398328833AC02091BF0192
:100CC0003091C001232B41F42091030130910401A4
:100CD0003093C0012093BF012091010130910201A6
:100CE0002115310541F42DB73EB7409105015091D2
:100CF0000601241B350BE091BF01F091C001E21702
:100D0000F307A0F42E1B3F0B2817390778F0AC012E
:100D10004E5F5F4F2417350748F04E0F5F1F50930B
:100D2000C0014093BF018193919302C0E0E0F0E0E5
:100D3000CF01DF91CF910895CF93DF93009709F40E
:100D400087C0FC01329713821282C091C101D091F9
:100D5000C201209781F420813181280F391F8091B1
:100D6000BF019091C0018217930779F5F093C001FC
:100D7000E093BF016DC0DE0120E030E0AE17BF0799
:100D800050F412964D915C9113979D0141155105B8
:100D900009F1DA01F3CFB383A28340815181840F3B
:100DA000951F8A179B0771F48D919C911197840F61
:100DB000951F02969183808312968D919C91139733
:100DC000938382832115310529F4F093C201E093C6
:100DD000C1013EC0D9011396FC93EE9312974D9139
:100DE0005D91A40FB51FEA17FB0779F4808191810B
:100DF000840F951F0296D90111969C938E93828140
:100E0000938113969C938E931297E0E0F0E08A8191
:100E10009B81009719F0FE01EC01F9CFCE010296FB
:100E200028813981820F931F2091BF013091C00129
:100E30002817390769F4309729F41092C2011092EB
:100E4000C10102C013821282D093C001C093BF01BE
:0A0E5000DF91CF910895F894FFCFD1
:100E5A007E0000C301200053656E64206D617373C8
:100E6A006167653A2000000000000082608EDB8026
:100E7A0043524320436865636B3A20000000000038
:100E8A00000000005265636569766564206D6173D0
:100E9A00736167653A20000052657472616E736D02
:100EAA006974206D65737361676500004944204366
:100EBA004845434B3A204944206973206D61746365
:100ECA00686564000000000000004944204348456A
:100EDA00434B3A204944206973206E6F74206D6138
:100EEA007463686564000000494420434845434BE5
:0C0EFA003A2042524F41444341535400FF
:00000001FF
