:1000000033C000004DC000004BC0000049C00000DC
:1000100047C0000082C6000043C0000041C000008D
:100020003FC000003DC000003BC0000082C5000092
:1000300092C5000035C0000033C0000031C0000090
:100040002FC000002DC000002BC0000029C0000000
:1000500027C0000025C0000023C0000021C0000010
:100060001FC000001DC0000011241FBECFEFD8E04C
:10007000DEBFCDBF12E0A0E0B1E0E4EAF2E102C0F1
:1000800005900D92A030B107D9F722E0A0E0B2E0D0
:1000900001C01D92A731B207E1F769D70C9450094E
:1000A000AFCFFB0177FD379623E0F595E7952A95CD
:1000B000E1F7E80FF91FCB0168E070E06CD720E8AA
:1000C00030E002C0359527958A95E2F78081822B32
:1000D0008083089584B1866384B98AB1837F8AB9A5
:1000E0005A9A08951092C5008DE48093C400E1EC03
:1000F000F0E0808188618083E2ECF0E080818660BE
:10010000808308959091C00095FFFCCF8093C60036
:1001100008958091C00087FFFCCF8091C6000895AC
:10012000E1E8F0E080818C60808381E08093890049
:1001300085ED8093880010928B008AEE80938A0070
:10014000EFE6F0E08081866080830895E8E6F0E0E5
:10015000808184608083EDE6F0E080818860808328
:100160000895EF92FF920F931F93CF93DF938C012B
:100170007B01EC01CE01801B910B8E159F051CF4B9
:100180008991C0DFF7CFCDB7DEB7E6E03FC7FB010F
:1001900077FD379633E0F595E7953A95E1F7E80F67
:1001A000F91F208130E0CB0168E070E0F4D640E830
:1001B00050E002C0559547958A95E2F724233523F0
:1001C00081E0232B09F480E00895413009F469CFE0
:1001D000FB0177FD379643E0F595E7954A95E1F702
:1001E000E80FF91FCB0168E070E0D5D620E830E0D9
:1001F00002C0359527958A95E2F720958081822364
:100200008083089580E091E024D79093100280933A
:100210000F0280E091E01DD79093120280931102AB
:100220000895FC0181E090E03091000120813213BB
:1002300002C080E090E00895A5E0B0E0E1E2F1E0E6
:10024000C2C67B0195E0E9E0F1E0DE011196019084
:100250000D929A95E1F7082F10E0C8010496F9D69F
:10026000B82EA92EE82FF92F20E030E0C801039620
:10027000821793076CF0201731070CF04BC0D701A1
:10028000A20FB31F4C9140832F5F3F4F3196F0CFA9
:10029000680153E0CC0CDD1C5A95E1F700E010E05A
:1002A0000C151D0524F5B8018B2D9A2D70DF8823C0
:1002B000D9F0E12CF12C4701800E911EB4018B2D59
:1002C0009A2D65DF782EB701CE01019660DF482FA9
:1002D0004725B4018B2D9A2D78DF8FEFE81AF80AA5
:1002E00081E2E816F10439F70F5F1F4FD9CF00E024
:1002F00010E0B8016C0D7D1D8B2D9A2D48DF482F25
:10030000B8018BE092E061DF0F5F1F4F00321105F3
:1003100081F702C01082B8CF8B2D9A2D32D78BE097
:1003200092E02596EDE06BC6A0E0B0E0E9E9F1E0EF
:1003300050C6E0911102F0911202BF016B5F7F4F36
:1003400084817ADF8C01E12CF12CC0E0D0E0BE0189
:10035000C8011DDFD82EBE018091110290911202BA
:1003600016DF482F4D25BE01C8012FDFBE01C80191
:100370000EDFE80EF11C2196C032D10541F7C7010E
:10038000CDB7DEB7E7E041C6FC01108211821282D0
:100390001382148280E090E0DF01A80FB91F159648
:1003A0001C9201968B3F9105B9F70895CF93DF9387
:1003B0008DE0A8DE8AE0A6DE8AE0A4DE8091070256
:1003C00090910802892B29F469E070E08EE091E0B9
:1003D00004C06CE070E088E191E0C3DE1092080296
:1003E000109207028DE08EDE8AE08CDE65E070E020
:1003F00085E291E0B6DEC0E0D0E0CE0187709927BB
:10040000892B11F480E27EDEBE0180910F02909173
:100410001002BDDE882311F081E301C080E372DEAB
:100420002196C032D10549F78DE06CDE8AE06ADEA4
:1004300066E070E08BE291E094DEC0E0D0E0809175
:100440000F0290911002BE010496A1DE882311F0E4
:1004500081E301C080E356DE2196C830D10579F7EB
:100460008DE050DE8AE04EDE66E070E082E391E0EF
:1004700078DEC0E0D0E080910F0290911002BE01C2
:10048000059685DE882311F081E301C080E33ADE22
:100490002196C830D10579F78DE034DE8AE032DE6E
:1004A00068E070E089E391E05CDE80910F0290915A
:1004B0001002BE0105966BDE882311F081E301C0B6
:1004C00080E320DE2196C031D10579F78DE01ADE78
:1004D0008AE018DE69E070E082E491E042DE80911B
:1004E0000F0290911002FC012481F8E02F9F9001EF
:1004F0001124C217D3071CF5C031D10589F0CE01F4
:1005000087709927892B11F480E2FCDDCE0140979A
:100510008F719927892B21F48DE0F4DD8AE0F2DDDB
:1005200080910F0290911002BE01059630DE882363
:1005300011F081E301C080E3E5DD2196D0CF24DF17
:10054000109206021092050210920A0210920902FD
:10055000DF91CF910895CF93DF93E6DEEC018DE03C
:10056000D1DD8AE0CFDD6BE070E08CE491E0F9DD75
:10057000CD2B21F48FE4C6DD8BE403C08EE4C2DD15
:1005800087E4C0DD8DE0BEDD8AE0BCDD69E070E0BF
:1005900088E591E0E6DD8DE0B5DD8AE0B3DD65E07C
:1005A00070E085E291E0DDDDC0E0D0E0CE01877053
:1005B0009927892B11F480E2A5DDBE0180911102FB
:1005C00090911202E4DD882311F081E301C080E301
:1005D00099DD2196C032D10549F78DE093DD8AE09F
:1005E00091DD66E070E08BE291E0BBDDC0E0D0E041
:1005F0008091110290911202BE010496C8DD8823F9
:1006000011F081E301C080E37DDD2196C830D10582
:1006100079F78DE077DD8AE075DD66E070E082E3F2
:1006200091E09FDDC0E0D0E0809111029091120234
:10063000BE010596ACDD882311F081E301C080E3A3
:1006400061DD2196C830D10579F78DE05BDD8AE068
:1006500059DD68E070E089E391E083DD809111026B
:1006600090911202BE01059692DD882311F081E37C
:1006700001C080E347DD2196C031D10579F78DE0D7
:1006800041DD8AE03FDD69E070E082E491E069DD10
:100690008091110290911202FC012481F8E02F9FB9
:1006A00090011124C217D3071CF5C031D10589F080
:1006B000CE0187709927892B11F480E223DDCE01CA
:1006C00040978F719927892B21F48DE01BDD8AE0FB
:1006D00019DD8091110290911202BE01059657DD3D
:1006E000882311F081E301C080E30CDD2196D0CF97
:1006F0004BDE81E090E09093020180930101DF9155
:10070000CF910895CF93DF93FB01948120E030E0F7
:10071000492F50E0EB01C40FD51FB901640F751FBD
:10072000672B59F0DE01A20FB31F14966C9114973A
:1007300016966C9321503109F0CF858389E086832A
:100740009E5F9483DF91CF9108950F931F93CF9372
:10075000DF93EB01A0910F02B091100214968C93DD
:1007600014978A01AC0120E030E02417350759F0D6
:10077000F80161918F01CD01820F931FFC01658308
:100780002F5F3F4FF2CFBD01CE01BCDFE0910F02E2
:10079000F0911002BF016B5F7F4F84814DDDE091CE
:1007A0000F02F091100220E030E0DC014D91CD010C
:1007B00041932F5F3F4F24303105B9F781E090E03E
:1007C00090930A0280930902DF91CF911F910F91BC
:1007D000089591E0893009F490E0892F089520E090
:1007E000FB01DC0101900D922A95E1F781E090E098
:1007F000909306028093050290930802809307026B
:1008000090930A028093090208950F931F93CF9348
:10081000DF938C01EB018DE075DC8AE073DC8E8167
:100820008930A1F48DE06EDC8AE06CDC60E170E080
:1008300081E891E096DC81E090E090930201809362
:10084000010110920A021092090233C08D818111B8
:100850000CC08DE057DC8AE055DC6AE070E082E68F
:1008600091E07FDC86E090E01DC0893081F48DE06E
:1008700049DC8AE047DC67E070E08DE691E071DCFE
:1008800086E090E0909302018093010112C08DE018
:1008900039DC8AE037DC6BE070E085E791E061DC11
:1008A00081E090E09093020180930101BE01C801B4
:1008B00096DFDF91CF911F910F910895A8E0B0E0EE
:1008C000E3E6F4E081C38DE01DDC8AE01BDC8AE016
:1008D00019DC02E310E08AE215DC01501109011570
:1008E0001105C9F78DE00EDC8AE00CDC69E170E0EF
:1008F00082E991E036DC7E0185E0E80EF11C00E043
:1009000010E0670106DCF70181937F018D3031F043
:10091000F9DB0F5F1F4F03301105A1F77601E00EE1
:10092000F11EF70180818D3049F40130110561F429
:10093000ED80F12CF0E3EF1AF10833C0EADBF701A8
:1009400080838D3071F7F1CF0230110559F48D811C
:1009500090E0C0972AE0289F7001299FF00C112495
:100960008E8118C003301105D1F48D8190E0C097BD
:1009700024E6289F7001299FF00C11248E8190E0BD
:10098000C0974AE0489F9001499F300D1124E20E24
:10099000F31E8F8190E0C097E80EF91E02C0E12C93
:1009A000F12C8DE0AFDB8AE0ADDB65E270E08CEA34
:1009B00091E0D7DBCE0101966C0100E010E05C0114
:1009C000A8DBF60181936F018D3031F09BDB0F5F67
:1009D0001F4F03301105A1F76501C00ED11EF601AE
:1009E00080818D3041F40130110559F4098110E006
:1009F0000053110933C08DDBF60180838D3079F708
:100A0000F2CF0230110559F4898190E0C0972AE0B5
:100A1000289F8001299F100D11248A8118C003305E
:100A20001105D1F4898190E0C09724E6289F8001C8
:100A3000299F100D11248A8190E0C0974AE0489FB9
:100A40009001499F300D1124020F131F8B8190E0FC
:100A5000C097080F191F02C000E010E08DE052DBC4
:100A60008AE050DB6CE170E082ED91E07ADBC80156
:100A7000F0D25C01480173E0880C991C7A95E1F78B
:100A8000C12CD12CC814D90460F5C114D10481F053
:100A9000C60187709927892B11F480E233DBC601E8
:100AA0008F719927892B21F48DE02CDB8AE02ADBDA
:100AB00030DB8D30C9F0813329F424DBB601C50168
:100AC000F0DA0BC0803331F41DDB40E0B601C50124
:100AD0007CDB03C0F1E0CF1AD1088FEFC81AD80A27
:100AE000D1CF17DB8D30E9F762E0C62ED12C809193
:100AF000050290910602019769F4D0920602C09215
:100B000005028DE0FFDA8AE0FDDA60E170E08FEE49
:100B100091E027DB8091050290910602892B39F73D
:100B2000A501B701C80111DEC5012BD32896ECE061
:100B300067C21F920F920FB60F9211248F939F934B
:100B400085B192E0892785B99F918F910F900FBE53
:100B50000F901F9018951F920F920FB60F921124AD
:100B60002F933F934F935F936F937F938F939F93B5
:100B7000AF93BF93EF93FF938091090290910A0284
:100B8000019719F5609102027091030280E091E0F3
:100B9000FEDA882311F02A9A01C02A988091020275
:100BA0009091030201969093030280930202809138
:100BB000020290910302089709F09EC0109203026E
:100BC0001092020282E090E02AC080910902909186
:100BD0000A02029749F56091020270910302809126
:100BE0000F0290911002D3DA882311F02A9A01C0E3
:100BF0002A98809102029091030201969093030239
:100C0000809302028091020290910302809709F082
:100C100073C0109203021092020283E090E090935E
:100C20000A028093090268C08091090290910A0229
:100C3000039731F5609102027091030280910F02D7
:100C4000909110020496A3DA882311F02A9A01C029
:100C50002A988091020290910302019690930302D8
:100C6000809302028091020290910302089709F09A
:100C700043C0109203021092020284E090E0CFCFB2
:100C80008091090290910A02049779F5609102021D
:100C90007091030280910F0290911002059677DA0D
:100CA000882311F02A9A01C02A988091020290911B
:100CB00003020196909303028093020220910202A4
:100CC00030910302E0910F02F0911002848148E01C
:100CD000849FC00111242817390771F41092030270
:100CE0001092020285E090E09ACF809109029091E3
:100CF0000A02059709F45ADBFF91EF91BF91AF917A
:100D00009F918F917F916F915F914F913F912F9123
:100D10000F900FBE0F901F9018951F920F920FB655
:100D20000F9211242F933F934F935F936F937F9371
:100D30008F939F93AF93BF93EF93FF9380910101A4
:100D400090910201019709F04CC0809100029091AE
:100D500001020897DCF44A9B08C060910002709180
:100D6000010284E092E09DD908C060910002709178
:100D7000010240E084E092E028DA80910002909144
:100D8000010201969093010280930002809100027B
:100D900090910102089751F4809100029091010214
:100DA000019690930102809300020EC08091000290
:100DB0009091010209970CF4C9C080910402880F38
:100DC0004A9981608093040284E092E02ADA892BB8
:100DD00009F0BCC0109201021092000282E090E083
:100DE0002EC08091010190910201029769F58091D6
:100DF0001102909112024A9B06C06091000270910C
:100E000001024FD906C0609100027091010240E0DA
:100E1000DCD9809100029091010201969093010229
:100E2000809300028091000290910102809709F066
:100E30008DC0109201021092000283E090E0909326
:100E400002018093010182C0809101019091020111
:100E5000039759F580911102909112024A9B07C0A5
:100E6000609100027091010204961BD907C0609145
:100E700000027091010240E00496A7D9809100021F
:100E8000909101020196909301028093000280915B
:100E9000000290910102089709F058C010920102D7
:100EA0001092000284E090E0CACF809101019091FD
:100EB00002010497A1F580911102909112024A9BC0
:100EC00007C060910002709101020596EAD807C040
:100ED000609100027091010240E0059676D9809100
:100EE000000290910102019690930102809300020A
:100EF0002091000230910102E0911102F091120262
:100F0000848148E0849FC001112428173907F1F437
:100F1000109201021092000287E090E090CF809141
:100F2000010190910201079751F4609111027091B3
:100F3000120280910F029091100267DC07C080912D
:100F4000010190910201069709F405DBFF91EF91F1
:100F5000BF91AF919F918F917F916F915F914F91D1
:100F60003F912F910F900FBE0F901F901895B2D800
:100F7000B9D8D6D8EBD846D97894CAE0D0E08091D9
:100F8000090290910A02892BD1F7D0930A02C093EB
:100F9000090294DCF4CF97FB072E16F4009406D0D8
:100FA00077FD08D042D007FC05D03EF4909581959E
:100FB0009F4F0895709561957F4F08952F923F92AE
:100FC0004F925F926F927F928F929F92AF92BF9259
:100FD000CF92DF92EF92FF920F931F93CF93DF9305
:100FE000CDB7DEB7CA1BDB0B0FB6F894DEBF0FBE62
:100FF000CDBF09942A88398848885F846E847D84AF
:101000008C849B84AA84B984C884DF80EE80FD80B0
:101010000C811B81AA81B981CE0FD11D0FB6F89426
:10102000DEBF0FBECDBFED010895AA1BBB1B51E172
:1010300007C0AA1FBB1FA617B70710F0A61BB70B48
:10104000881F991F5A95A9F780959095BC01CD01ED
:101050000895CF93DF938230910510F482E090E001
:10106000E0911502F091160220E030E0A0E0B0E03F
:10107000309739F14081518148175907B8F0481726
:10108000590771F482819381109729F013969C93EC
:101090008E9312972CC0909316028093150227C04E
:1010A0002115310531F04217530718F0A901DB0172
:1010B00001C0EF019A01BD01DF010280F381E02D43
:1010C000D7CF21153105F9F0281B390B2430310514
:1010D00080F48A819B816115710521F0FB01938366
:1010E000828304C09093160280931502FE0132960B
:1010F00044C0FE01E20FF31F819391932250310906
:10110000398328833AC02091130230911402232B93
:1011100041F420910501309106013093140220938F
:10112000130220910301309104012115310541F48E
:101130002DB73EB74091070150910801241B350B94
:10114000E0911302F0911402E217F307A0F42E1BB2
:101150003F0B2817390778F0AC014E5F5F4F24171B
:10116000350748F04E0F5F1F50931402409313024F
:101170008193919302C0E0E0F0E0CF01DF91CF9145
:101180000895CF93DF93009709F487C0FC0132974D
:1011900013821282C0911502D0911602209781F419
:1011A00020813181280F391F809113029091140200
:1011B0008217930779F5F0931402E09313026DC040
:1011C000DE0120E030E0AE17BF0750F412964D91DB
:1011D0005C9113979D014115510509F1DA01F3CF97
:1011E000B383A28340815181840F951F8A179B0787
:1011F00071F48D919C911197840F951F02969183A4
:10120000808312968D919C911397938382832115ED
:10121000310529F4F0931602E09315023EC0D9017E
:101220001396FC93EE9312974D915D91A40FB51F09
:10123000EA17FB0779F480819181840F951F02964C
:10124000D90111969C938E938281938113969C93DE
:101250008E931297E0E0F0E08A819B81009719F06D
:10126000FE01EC01F9CFCE01029628813981820F6F
:10127000931F20911302309114022817390769F443
:10128000309729F4109216021092150202C01382B0
:101290001282D0931402C0931302DF91CF9108956C
:0412A000F894FFCFF0
:1012A4007E010000001702200082608EDB805B4D0F
:1012B400595F53454E445D005B52455452414E5371
:1012C4004D49545D004352433A200053495A453A2C
:1012D4002000444553543A2000534F555243453A55
:1012E40020005041594C4F41443A2000435243207E
:1012F400436865636B3A20005B5265636569766594
:101304005D005B424F4144434153545D005B4D5982
:101314005F49445D005B4E6F74204D595F49445DE5
:10132400005B52657475726E6564204D595F494463
:101334005D00456E74657220494420746F207365A6
:101344006E6428307E323535293A2000456E746546
:10135400722073697A6528627974657329206F66CF
:10136400206D65737361676528317E323531293AA2
:101374002000456E7465722073656E64206D65731C
:10138400736167652831206F722030293A20005B31
:101394005761697420666F722052656C61795D00D3
:00000001FF
