:1000000033C000004EC000004CC000004AC00000D9
:1000100048C000000C945A0844C0000042C00000D0
:1000200040C000003EC000003CC000004FC70000C0
:100030005FC7000036C0000034C0000032C00000BE
:1000400030C000002EC000002CC000002AC00000FC
:1000500028C0000026C0000024C0000022C000000C
:1000600020C000001EC0000011241FBECFEFD8E04A
:10007000DEBFCDBF12E0A0E0B1E0EEE6F6E102C0E7
:1000800005900D92AA33B107D9F722E0AAE3B2E0B6
:1000900001C01D92AD34B207E1F70E9497090C949C
:1000A000350BAECFFB0177FD379623E0F595E7954D
:1000B0002A95E1F7E80FF91FCB0168E070E00E9494
:1000C000B00920E830E002C0359527958A95E2F71F
:1000D0008081822B8083089584B1866384B98AB13C
:1000E000837F8AB95A9A08951092C5008DE480934F
:1000F000C400E1ECF0E0808188618083E2ECF0E014
:1001000080818660808308959091C00095FFFCCF28
:100110008093C60008958091C00087FFFCCF809136
:10012000C6000895E1E8F0E080818C60808383E080
:10013000809389008AEA8093880081E080938B0015
:1001400085ED80938A00EFE6F0E080818660808311
:100150000895E8E6F0E0808184608083EDE6F0E0D9
:10016000808188608083089580E091E00E940E0A7B
:10017000909346028093450280E091E00E940E0A2F
:1001800090934802809347020895FC0181E090E03B
:10019000309100012081321302C080E090E0089588
:1001A000FC011082118212821382148280E090E09E
:1001B000DF01A80FB91F15961C9201968B3F910580
:1001C000B9F70895FB0177FD379633E0F595E7958C
:1001D0003A95E1F7E80FF91F208130E0CB0168E0A4
:1001E00070E00E94B00940E850E002C05595479584
:1001F0008A95E2F72423352381E0232B09F480E05C
:100200000895ACE3B0E0E7E0F1E00C94CB098DE0B9
:100210007BDF8AE079DF8AE077DF87E0E9E0F1E001
:10022000DE01D39601900D928A95E1F71AAE1BAECE
:100230001CAE8E010D5C1F4F6E014DE3C40ED11C30
:100240007801F80181918F015FDF0C151D05C9F759
:100250008DE05ADF8AE058DF86E0E3E1F1E0DE017D
:10026000999601900D928A95E1F71FA618AA19AAEE
:100270001AAA8E01075D1F4F6801F80181918F0155
:1002800043DF0E151F05C9F700E010E0C8018770B5
:100290009927892B11F480E237DFB801809145025C
:1002A000909146028FDF882311F081E301C080E343
:1002B0002BDF0F5F1F4F0032110541F78DE024DF68
:1002C0008AE022DF87E0EDE1F1E0DE015F96019058
:1002D0000D928A95E1F71EA21FA218A68E01015E5B
:1002E0001F4F7801F80181918F010EDF0C151D055C
:1002F000C9F700E010E08091450290914602B801F4
:10030000049660DF882311F081E301C080E3FCDE06
:100310000F5F1F4F0830110571F78DE0F5DE8AE0A1
:10032000F3DE87E0E7E2F1E0DE01559601900D9201
:100330008A95E1F71C8E1D8E1E8E8E010B5E1F4F5F
:100340005801F80181918F01DFDE0E151F05C9F7F5
:1003500000E010E08091450290914602B8010596B8
:1003600031DF882311F081E301C080E3CDDE0F5F30
:100370001F4F0830110571F78DE0C6DE8AE0C4DE3C
:1003800089E0E1E3F1E0DE011B9601900D928A9590
:10039000E1F71C8A7E01FBE0EF0EF11C6701F7011B
:1003A00081917F01B1DEEA14FB04C9F78091450217
:1003B00090914602B801059605DF882311F081E38C
:1003C00001C080E3A1DE0F5F1F4F0031110571F7FF
:1003D0008DE09ADE8AE098DE8AE0E6E2F2E0DE0175
:1003E000119601900D928A95E1F7CE0101967C015C
:1003F000F70181917F0188DEEC14FD04C9F780913B
:10040000450290914602FC012481F8E02F9F900163
:1004100011240217130724F50031110589F0C801D2
:1004200087709927892B11F480E26EDEC80140970E
:100430008F719927892B21F48DE066DE8AE064DED6
:100440008091450290914602B8010596BBDE882353
:1004500011F081E301C080E357DE0F5F1F4FCFCF64
:100460009FDE1092400210923F02EC96EAE0AFC786
:10047000413009F417CEFB0177FD379643E0F5953F
:10048000E7954A95E1F7E80FF91FCB0168E070E0C6
:1004900067D720E830E002C0359527958A95E2F7C6
:1004A00020958081822380830895A5E0B0E0EAE56D
:1004B000F2E06EC77B0195E0EBE3F1E0DE0111961F
:1004C00001900D929A95E1F7082F10E0C80104966B
:1004D000A5D7B82EA92EE82FF92F20E030E0C801CB
:1004E0000396821793076CF0201731070CF04BC06E
:1004F000D701A20FB31F4C9140832F5F3F4F31961E
:10050000F0CF680153E0CC0CDD1C5A95E1F700E018
:1005100010E00C151D0524F5B8018B2D9A2D52DE27
:100520008823D9F0E12CF12C4701800E911EB401F3
:100530008B2D9A2D47DE782EB701CE01019642DE33
:10054000482F4725B4018B2D9A2D92DF8FEFE81AA3
:10055000F80A81E2E816F10439F70F5F1F4FD9CF8F
:1005600000E010E0B8016C0D7D1D8B2D9A2D2ADE68
:10057000482FB80181E492E07BDF0F5F1F4F00320C
:10058000110581F702C01082B8CF8B2D9A2DDED7CE
:1005900081E492E02596EDE017C7A0E0B0E0E2ED3F
:1005A000F2E0FCC6E0914702F0914802BF016B5FA8
:1005B0007F4F84817ADF8C01E12CF12CC0E0D0E008
:1005C000BE01C801FFDDD82EBE0180914702909187
:1005D0004802F8DD482F4D25BE01C80149DFBE01A4
:1005E000C801F0DDE80EF11C2196C032D10541F7BB
:1005F000C701CDB7DEB7E7E0EDC6A0E5B0E0E2E0C9
:10060000F3E0C7C6CADF6C018DE07EDD8AE07CDDE9
:100610008CE0E0E4F1E0DE01119601900D928A9504
:10062000E1F7FE013D9688E0DF011D928A95E9F72A
:100630008E010F5F1F4F7E01B5E1EB0EF11CF8013B
:1006400081918F0161DD0E151F05C9F7CD2821F4B9
:100650008FE45ADD8BE403C08EE456DD87E454DD7D
:100660008DE052DD8AE050DD8AE0E0E3F2E0DE0179
:10067000A95BBF4F01900D928A95E1F78E01095B4E
:100680001F4F6801FAE0CF0ED11CD8018D918D016A
:100690003BDD0C151D05C9F78DE036DD8AE034DD44
:1006A00086E0E3E1F1E0DE01DD9601900D928A95AE
:1006B000E1F727961CAE1DAE1EAE1FAE27978E012A
:1006C000035C1F4F6801BAE0CB0ED11C5801F80142
:1006D00081918F0119DD0C151D05C9F700E010E0AF
:1006E000C80187709927892B11F480E20DDDB801CC
:1006F000809147029091480265DD882311F081E3E3
:1007000001C080E301DD0F5F1F4F0032110541F78B
:100710008DE0FADC8AE0F8DC87E0EDE1F1E0DE0173
:10072000D39601900D928A95E1F71AAE1BAE1CAEDE
:100730008E010D5C1F4F6801D8018D918D01E4DCA5
:100740000A151B05C9F700E010E08091470290915F
:100750004802B801049636DD882311F081E301C018
:1007600080E3D2DC0F5F1F4F0830110571F78DE079
:10077000CBDC8AE0C9DC87E0E7E2F1E0DE019996B4
:1007800001900D928A95E1F718AA19AA1AAA8E016A
:10079000075D1F4F5801F80181918F01B5DC0C15E1
:1007A0001D05C9F700E010E08091470290914802D2
:1007B000B801059607DD882311F081E301C080E3CD
:1007C000A3DC0F5F1F4F0830110571F78DE09CDC33
:1007D0008AE09ADC89E0E1E3F1E0DE015F960190D6
:1007E0000D928A95E1F718A66E01FFE1CF0ED11C9C
:1007F0004601D6018D916D0187DCCA14DB04C9F76F
:100800008091470290914802B8010596DBDC88236D
:1008100011F081E301C080E377DC0F5F1F4F0031EF
:10082000110571F78DE070DC8AE06EDC8AE0E6E2AB
:10083000F2E0DE01559601900D928A95E1F7F701FD
:1008400081917F0161DCE814F904C9F780914702C6
:1008500090914802DC0114962C91B8E02B9F9001F6
:1008600011240217130724F50031110589F0C8017E
:1008700087709927892B11F480E246DCC8014097E4
:100880008F719927892B21F48DE03EDC8AE03CDCD6
:100890008091470290914802B801059693DC882325
:1008A00011F081E301C080E32FDC0F5F1F4FCECF3B
:1008B00077DC8DE029DC8AE027DC81E090E0909312
:1008C000020180930101C05BDF4FECE07EC5CF9356
:1008D000DF93FB01948120E030E0492F50E0EB01F1
:1008E000C40FD51FB901640F751F672B59F0DE01C6
:1008F000A20FB31F14966C91149716966C93215007
:100900003109F0CF858389E086839E5F9483DF91F0
:10091000CF9108950F931F93CF93DF93EB01A09195
:100920004502B091460214968C9314978A01AC014B
:1009300020E030E02417350759F0F80161918F016C
:10094000CD01820F931FFC0165832F5F3F4FF2CFD4
:10095000BD01CE01BCDFE0914502F0914602BF012E
:100960006B5F7F4F8481A1DDE0914502F0914602EB
:1009700020E030E0DC014D91CD0141932F5F3F4FEE
:1009800024303105B9F781E090E0909340028093E4
:100990003F02DF91CF911F910F91089591E089302F
:1009A00009F490E0892F0895A4E1B0E0E9EDF4E0C6
:1009B000F6C420E0FB01DC0101900D922A95E1F7DD
:1009C0008DE0A2DB8AE0A0DB8DE0E4E5F1E0DE0172
:1009D000119601900D928A95E1F7FE013E9687E00F
:1009E000DF011D928A95E9F78E010F5F1F4F7E018F
:1009F000B5E1EB0EF11CF80181918F0185DB0E153D
:100A00001F05C9F781E090E09093400280933F0278
:100A10006496E6E0E0C4A8E2B0E0E0E1F5E0B9C445
:100A20005C018B018DE070DB8AE06EDB8AE06CDBC1
:100A30008CE0E8E6F1E0DE01559601900D928A9592
:100A4000E1F7FE01B19688E0DF011D928A95E9F792
:100A50007E01B5E1EB0EF11C4E01E9E28E0E911C18
:100A60006701D7018D917D014FDBE814F904C9F7C7
:100A700068E0E62EF12C4801B5E08B0E911CB70121
:100A8000C401A0DB882311F081E301C080E33CDBDB
:100A9000EFEFEE1AFE0AF0E1EF16F10481F7D8014C
:100AA00016968C91893009F47DC0F80185818111F9
:100AB00024C08DE029DB8AE027DB8CE0ECE7F1E065
:100AC000DE01119601900D928A95E1F7FE013D96A7
:100AD00088E0DF011D928A95E9F73C977F01D701F5
:100AE0008D917D0111DBEC14FD04C9F78DE00CDB69
:100AF0008AE00ADB86E090E04DC0893041F58DE068
:100B000003DB8AE001DB88E0E0E9F1E0DE01119639
:100B100001900D928A95E1F71A8619868E010F5F72
:100B20001F4F7E01BBE0EB0EF11CF80181918F019C
:100B3000EBDA0E151F05C9F78DE0E6DA8AE0E4DA94
:100B400086E090E0909302018093010153C08DE014
:100B5000DBDA8AE0D9DA8CE0EAE9F1E0DE0111962D
:100B600001900D928A95E1F7FE013D9688E0DF0144
:100B70001D928A95E9F73C977F01D7018D917D0100
:100B8000C3DAEC14FD04C9F78DE0BEDA8AE0BCDA02
:100B900081E090E09093020180930101B801C501CA
:100BA00003DF28C08DE0B0DA8AE0AEDA81E1EEEA58
:100BB000F1E0DE01119601900D928A95E1F71A8A13
:100BC0001B8A1C8A8E010F5F1F4FF80181918F01D4
:100BD0009BDA0C151D05C9F78DE096DA8AE094DAE8
:100BE00081E090E090930201809301011092400215
:100BF00010923F02A896ECE0E8C3ACE6B0E0E2E079
:100C0000F6E0C7C38DE080DA8AE07EDA8AE07CDA3B
:100C100002E310E08AE278DA0150110901151105AA
:100C2000C9F78DE071DA8AE06FDA8AE1E2ECF1E08F
:100C3000DE01A95BBF4F01900D928A95E1F7A59661
:100C40001CAE1DAE1EAE1FAEA5978E01095B1F4FD9
:100C500078018EE1E80EF11CF80181918F0154DAE0
:100C60000E151F05C9F76E01F9E6CF0ED11CE12C58
:100C7000F12C860150DAF60181936F018D3041F03D
:100C800043DAFFEFEF1AFF0A83E0E816F10491F769
:100C90006801CE0CDF1CF60180818D3059F4F1E043
:100CA000EF16F10469F4F801E080F12CF0E3EF1A9B
:100CB000F10837C030DAF60180838D3061F7EFCF6D
:100CC00082E0E816F10461F4F801808190E0C097B9
:100CD0002AE0289F7001299FF00C112481811AC0FD
:100CE000F3E0EF16F104D9F4F801808190E0C097A9
:100CF00024E6289F7001299FF00C1124818190E047
:100D0000C0974AE0489F9001499F300D1124E20EA0
:100D1000F31E828190E0C097E80EF91E02C0E12C1C
:100D2000F12C8DE0F1D98AE0EFD986E2E0EEF1E036
:100D3000DE01119601900D928A95E1F718A61FA287
:100D40008E010F5F1F4F4E01F9E28F0E911CF801CB
:100D500081918F01D9D908151905C9F75E01F5E60A
:100D6000AF0EB11C00E010E06501D5D9F50181930B
:100D70005F018D3031F0C8D90F5F1F4F033011056F
:100D8000A1F75601A00EB11EF50180818D3049F406
:100D90000130110561F4F601008110E000531109E2
:100DA00035C0B9D9F50180838D3071F7F1CF0230AC
:100DB000110561F4F601808190E0C0972AE0289F38
:100DC0008001299F100D1124818119C00330110564
:100DD000D9F4F601808190E0C09724E6289F800135
:100DE000299F100D1124818190E0C0974AE0489F0F
:100DF0009001499F300D1124020F131F828190E052
:100E0000C097080F191F02C000E010E08DE07CD9E8
:100E10008AE07AD98DE1E8E0F2E0DE01999601906E
:100E20000D928A95E1F727961FAE2797640154012A
:100E3000FEE1AF0EB11CF60181916F0165D9CA14B4
:100E4000DB04C9F7C801EAD25C01480173E0880CF1
:100E5000991C7A95E1F7C12CD12CC814D90448F516
:100E6000C60187709927892B11F480E24DD9C601FC
:100E70008F719927892B21F48DE046D98AE044D9D6
:100E80004AD98D30C9F0813329F43ED9B601C50164
:100E900009D90BC0803331F437D940E0B601C50120
:100EA000E7DA03C0F1E0CF1AD1088FEFC81AD80AE9
:100EB000D4CF31D98D30E9F7A501B701C8012ADDBA
:100EC000C50144D3C459DF4FECE07FC21F920F929B
:100ED0000FB60F9211248F939F9385B192E08927CB
:100EE00085B99F918F910F900FBE0F901F9018950D
:100EF0001F920F920FB60F9211242F933F934F938F
:100F00005F936F937F938F939F93AF93BF93EF9371
:100F1000FF9380913F0290914002019719F56091F3
:100F20003C0270913D0280E091E04CD9882311F0A1
:100F30002A9A01C02A9880913C0290913D02019624
:100F400090933D0280933C0280913C0290913D023F
:100F5000089709F09EC010923D0210923C0282E078
:100F600090E02AC080913F0290914002029749F59B
:100F700060913C0270913D02809145029091460241
:100F800021D9882311F02A9A01C02A9880913C0225
:100F900090913D02019690933D0280933C02809196
:100FA0003C0290913D02809709F073C010923D027F
:100FB00010923C0283E090E09093400280933F02C5
:100FC00068C080913F0290914002039731F5609193
:100FD0003C0270913D028091450290914602049638
:100FE000F1D8882311F02A9A01C02A9880913C02F6
:100FF00090913D02019690933D0280933C02809136
:101000003C0290913D02089709F043C010923D02C6
:1010100010923C0284E090E0CFCF80913F0290910B
:101020004002049779F560913C0270913D028091F5
:101030004502909146020596C5D8882311F02A9A58
:1010400001C02A9880913C0290913D0201969093B4
:101050003D0280933C0220913C0230913D02E091A0
:101060004502F0914602848148E0849FC00111242A
:101070002817390771F410923D0210923C0285E066
:1010800090E09ACF80913F0290914002059709F439
:10109000B8D8FF91EF91BF91AF919F918F917F91C0
:1010A0006F915F914F913F912F910F900FBE0F90D5
:1010B0001F9018951F920F920FB60F9211242F9325
:1010C0003F934F935F936F937F938F939F93AF93D0
:1010D000BF93EF93FF9380910101909102010197DB
:1010E00009F05CC080913A0290913B020897E4F4C9
:1010F0004A9B09C060913A0270913B028EE392E0F4
:101100000E94520008C060913A0270913B0240E098
:101110008EE392E0ADD980913A0290913B02019624
:1011200090933B0280933A0280913A0290913B0265
:101130000897C9F48EE392E028D8892B51F41092D5
:101140003B0210923A0282E090E090930201809379
:10115000010180913A0290913B02019690933B02EB
:1011600080933A02D3C080913A0290913B02099752
:101170000CF4CCC080913E02880F4A998160809324
:101180003E028EE392E001D8892B09F0BFC0109295
:101190003B0210923A0282E090E02FC08091010160
:1011A00090910201029771F5809147029091480257
:1011B0004A9B07C060913A0270913B020E94520024
:1011C00006C060913A0270913B0240E051D9809193
:1011D0003A0290913B02019690933B0280933A022F
:1011E00080913A0290913B02809709F08FC0109253
:1011F0003B0210923A0283E090E0909302018093C8
:10120000010184C08091010190910201039761F571
:1012100080914702909148024A9B08C060913A022F
:1012200070913B0204960E94520007C060913A02FE
:1012300070913B0240E004961BD980913A02909154
:101240003B02019690933B0280933A0280913A02CE
:1012500090913B02089709F059C010923B021092FE
:101260003A0284E090E0C9CF80910101909102019F
:101270000497A9F580914702909148024A9B08C0C3
:1012800060913A0270913B0205960E94520007C09D
:1012900060913A0270913B0240E00596E9D8809156
:1012A0003A0290913B02019690933B0280933A025E
:1012B00020913A0230913B02E0914702F0914802BE
:1012C000848148E0849FC001112428173907F1F474
:1012D00010923B0210923A0287E090E08ECF80910C
:1012E000010190910201079751F4609147027091BA
:1012F000480280914502909146028DDB07C08091A3
:10130000010190910201069709F477D9FF91EF91BD
:10131000BF91AF919F918F917F916F915F914F910D
:101320003F912F910F900FBE0F901F9018950E9424
:101330006C000E9474000E9492000E94A9000E940A
:10134000B4007894CAE0D0E080913F0290914002CE
:10135000892BD1F7D0934002C0933F024EDCF4CFEB
:1013600097FB072E16F4009406D077FD08D042D0E4
:1013700007FC05D03EF4909581959F4F0895709598
:1013800061957F4F08952F923F924F925F926F9297
:101390007F928F929F92AF92BF92CF92DF92EF9205
:1013A000FF920F931F93CF93DF93CDB7DEB7CA1B86
:1013B000DB0B0FB6F894DEBF0FBECDBF09942A88B1
:1013C000398848885F846E847D848C849B84AA8459
:1013D000B984C884DF80EE80FD800C811B81AA81E6
:1013E000B981CE0FD11D0FB6F894DEBF0FBECDBFB1
:1013F000ED010895AA1BBB1B51E107C0AA1FBB1F2B
:10140000A617B70710F0A61BB70B881F991F5A9590
:10141000A9F780959095BC01CD010895CF93DF93F6
:101420008230910510F482E090E0E0914B02F0915F
:101430004C0220E030E0A0E0B0E0309739F140818C
:10144000518148175907B8F04817590771F482813C
:101450009381109729F013969C938E9312972CC02A
:1014600090934C0280934B0227C02115310531F037
:101470004217530718F0A901DB0101C0EF019A01DF
:10148000BD01DF010280F381E02DD7CF21153105A9
:10149000F9F0281B390B2430310580F48A819B81B7
:1014A0006115710521F0FB019383828304C0909341
:1014B0004C0280934B02FE01329644C0FE01E20FC3
:1014C000F31F8193919322503109398328833AC0C5
:1014D0002091490230914A02232B41F420910501C9
:1014E0003091060130934A02209349022091030172
:1014F000309104012115310541F42DB73EB74091DB
:10150000070150910801241B350BE0914902F0912D
:101510004A02E217F307A0F42E1B3F0B28173907E6
:1015200078F0AC014E5F5F4F2417350748F04E0F3F
:101530005F1F50934A02409349028193919302C0E6
:10154000E0E0F0E0CF01DF91CF910895CF93DF93FA
:10155000009709F487C0FC01329713821282C09170
:101560004B02D0914C02209781F420813181280FC9
:10157000391F8091490290914A028217930779F5A9
:10158000F0934A02E09349026DC0DE0120E030E0B2
:10159000AE17BF0750F412964D915C9113979D01C1
:1015A0004115510509F1DA01F3CFB383A2834081DC
:1015B0005181840F951F8A179B0771F48D919C911F
:1015C0001197840F951F02969183808312968D91B7
:1015D0009C911397938382832115310529F4F0930D
:1015E0004C02E0934B023EC0D9011396FC93EE935C
:1015F00012974D915D91A40FB51FEA17FB0779F47F
:1016000080819181840F951F0296D90111969C9338
:101610008E938281938113969C938E931297E0E030
:10162000F0E08A819B81009719F0FE01EC01F9CF6F
:10163000CE01029628813981820F931F20914902A1
:1016400030914A022817390769F4309729F410922B
:101650004C0210924B0202C013821282D0934A02B3
:0E166000C0934902DF91CF910895F894FFCF17
:10166E007E010000004D0220005B53656E645D003C
:10167E000000004352433A20000000000053495A34
:10168E00453A2000000000444553543A2000000023
:10169E0000536F757263653A20000082608EDB80A6
:1016AE0043524320436865636B3A200000000000FC
:1016BE00000000005B52657472616E736D69745D3B
:1016CE000000000000000000536F75726365204932
:1016DE00443A200000000000000000005B42524F20
:1016EE004144434153545D000000000000000000DF
:1016FE005B4D595F49445D0000005B4E6F74204D99
:10170E00595F49445D0000000000000000005B527C
:10171E00657475726E6564204D595F49445D0000B5
:10172E000000456E74657220494420746F20736505
:10173E006E6428307E323535293A200000000000D4
:10174E00456E7465722073697A6528627974657363
:10175E0029206F66206D65737361676528317E324F
:10176E003531293A20000000456E7465722073658C
:10177E006E64206D6573736167652831206F72200A
:10178E0030293A2000005061796C6F61643A200074
:0A179E005B526563656976655D00C6
:00000001FF
