:1000000033C0000044C0000042C0000040C00000F7
:100010003EC000003CC000003AC0000038C00000F4
:1000200036C0000034C0000032C0000030C0000004
:100030002EC000002CC000002AC0000028C0000014
:1000400026C0000024C0000022C0000020C0000024
:100050001EC000001CC000001AC0000018C0000034
:1000600016C0000014C0000011241FBECFEFD8E05E
:10007000DEBFCDBF11E0A0E0B1E0E2E8F3E002C0F6
:1000800005900D92AA35B107D9F73CD178C1B8CF08
:100090009093C5008093C400E1ECF0E0808188611A
:1000A0008083E2ECF0E080818E60808308959091FF
:1000B000C00095FFFCCF8093C60008958091C000DA
:1000C00087FFFCCF8091C6000895AAE5B0E0EAE67C
:1000D000F0E02AC199E1E0E0F1E0DE01DD96019077
:1000E0000D929A95E1F7FE01EA5AFF4F95E0DF0184
:1000F000292F1D922A95E9F729E1EEE1F1E0DE01D1
:100100005F9601900D922A95E1F7FE01F896DF01C6
:10011000292F1D922A95E9F729E1ECE3F1E0DE01B0
:10012000119601900D922A95E1F7FE017A96DF0172
:100130001D929A95E9F7843611F1833789F081365B
:1001400061F58E01035C1F4F7801BEE1EB0EF11CDF
:10015000F80181918F01ABDF0E151F05C9F71DC096
:100160008E01015E1F4F7E01FDE3EF0EF11CD801F1
:100170008D918D019CDF0E151F05C9F70EC08E01F4
:100180000F5F1F4F7E01BFE1EB0EF11CF801819163
:100190008F018DDF0E151F05C9F7C65ADF4FE6E048
:1001A000DFC09FEF94B99AB915B81BB8843609F42B
:1001B00072C08337C9F1813609F0A3C086DF80E0C1
:1001C00090E044E050E06BB19A01082E01C0220F8C
:1001D0000A94EAF7622B6BB92FE73CEF6AE02150F3
:1001E00030406040E1F700C0000001968630910584
:1001F00051F780E090E041E050E065B19A01082EAF
:1002000001C0220F0A94EAF7622B65B92FE73CEF91
:100210006AE0215030406040E1F700C000000196E4
:100220008630910551F7089583E74FDF80E090E035
:1002300044E050E06BB19A01082E01C0220F0A94ED
:10024000EAF7622B6BB92FEF32E567E021503040BF
:100250006040E1F700C0000001968630910551F73B
:1002600080E090E041E050E065B19A01082E01C0C5
:10027000220F0A94EAF7622B65B92FEF32E567E0A7
:10028000215030406040E1F700C000000196863008
:10029000910551F7089584E618DF80E090E044E08E
:1002A00050E06BB19A01082E01C0220F0A94EAF7C0
:1002B000622B6BB92FE739EA63E021503040604090
:1002C000E1F700C0000001968630910551F780E00B
:1002D00090E041E050E065B19A01082E01C0220F84
:1002E0000A94EAF7622B65B92FE739EA63E02150F7
:1002F00030406040E1F700C0000001968630910573
:1003000051F7089586E290E0C3DED8DE4ADFFDCFE4
:100310002F923F924F925F926F927F928F929F9215
:10032000AF92BF92CF92DF92EF92FF920F931F9303
:10033000CF93DF93CDB7DEB7CA1BDB0B0FB6F894B4
:10034000DEBF0FBECDBF09942A88398848885F84F4
:100350006E847D848C849B84AA84B984C884DF8065
:10036000EE80FD800C811B81AA81B981CE0FD11D49
:100370000FB6F894DEBF0FBECDBFED010895F8941F
:02038000FFCFAD
:100382000D0A4D6F646520313A2053706565642013
:100392006973203330306D730000000000000D0AD5
:1003A2004D6F646520323A2053706565642069732D
:1003B200203230306D730000000000000D0A4D6FD6
:1003C200646520333A205370656564206973203177
:0A03D20030306D73000000000000E1
:00000001FF
