:1000000033C0000041C000003FC000003DC0000000
:100010003BC0000039C0000037C0000035C0000000
:1000200033C0000031C000002FC000002DC0000010
:100030002BC0000029C0000027C0000025C0000020
:100040003AC0000021C000001FC000001DC0000019
:100050001BC0000019C0000017C0000015C0000040
:1000600013C0000011C0000011241FBECFEFD8E064
:10007000DEBFCDBF21E0A0E0B1E001C01D92A23003
:10008000B207E1F765D074C0BBCF9093C5008093F1
:10009000C400E1ECF0E0808188618083E2ECF0E074
:1000A00080818660808308959091C00095FFFCCF89
:1000B0008093C60008951F920F920FB60F921124DD
:1000C0002F933F934F935F936F937F938F939F9360
:1000D000AF93BF93EF93FF9381ED86BD80910001B5
:1000E0009091010101969093010180930001893E56
:1000F000934054F089E4D8DF8DE0D6DF8AE0D4DF86
:100100001092010110920001FF91EF91BF91AF9108
:100110009F918F917F916F915F914F913F912F911F
:100120000F900FBE0F901F9018958091C00087FF11
:10013000FCCF8091C600089585B5846085BD81EDB2
:1001400086BDEEE6F0E0808181608083789408953A
:100150008DE490E09ADFF0DF8DE4A6DF2FE789EAF7
:1001600093E0215080409040E1F700C00000F4CFC0
:04017000F894FFCF31
:00000001FF
